:03000000021644A1
:0C164400787FE4F6D8FD75816102168BFA
:1013CB00416C61726D000031204F4E000031204F97
:1013DB004646000032204F4E000032204F4646005A
:1013EB00003C4F7074696F6E204D656E753E00004A
:1013FB00312E54696D65205365740000322E416C9B
:10140B0061726D20536574000040417574686F7292
:10141B003A435442555E5368790000202020200047
:10142B00003C2D3C2D00003C20416C61726D205323
:10143B006574203E0000416C61726D3140000041CB
:10144B006C61726D324000004F464600204F4E00DB
:10145B00202020002020003C2054696D6520205363
:06146B006574203E000044
:1019A600063C003008002008014F000150010142AA
:1019B6000001440001430002510000013B001621D2
:1019C600323032302D31312D30392D3132303A30FE
:0619D600303A313200003E
:10000E0043B010121510121AF6C288D2A8D2A9C285
:10001E008CD2AFE54F147003020119147003020263
:10002E00041470030204E61470030200D324047057
:10003E00E2E54320E743E4FF121A4D4343807BFF82
:10004E007A1379CB7D06E4FF12175CE53C7BFF60EB
:10005E00067A1379D280047A1379D87D067F2A1214
:10006E00175CE53F7BFF60067A1379DF80047A1315
:10007E0079E57D067F5512175C121AD01213258B67
:10008E00388A39893AE4FD121856E53C6011E55C70
:10009E00B53D0CE55DB53E07E55B7003754F04E5B8
:1000AE003F7003020021E55C65406003020021E51C
:1000BE005D65416003020021E55B6003020021756E
:0A00CE004F04020021B2B4E4F55023
:0F00D8007508C8AF081508EF6005121B0F80F4FC
:0C00E70030A60930A50630A40302002159
:1000F300750850754201AF081508EF7005121B0F04
:1001030080F430A60930A50630A403020021D2B43E
:03011300E4F54FC1
:10011600020021E54320E63CE4FF121A4D7BFF7AFC
:100126001379ECE4FD7F0C12175C7BFF7A1379FBE5
:100136007D027F0212175C7BFF7A1479077D047FAC
:100146000212175C7BFF7A1479147D06E4FF1217FE
:100156005C434340E542700F30A60630A50320A459
:1001660006754414754201121B0FE5427003020026
:10017600211544E544600302002120A51F434301E5
:100186005343FDF550F5427BFF7A1479267D027FB5
:100196005012175C7BFF7A14792C802120A6284305
:1001A60043025343FEE4F550F5427BFF7A14792C63
:1001B6007D027F5012175C7BFF7A1479267D047FBF
:1001C6005812175C02002120A42EE54330E012E409
:1001D600F550D28CC2A8434303754F02F542020084
:1001E60021E54330E112E4F550D28CC2A843430323
:1001F600754F03F542020021E4F542020021E54372
:1002060020E549E4FF121A4D7BFF7A147932E4FDAA
:100216007F0C12175C7BFF7A1479417D027F0212F4
:10022600175C7BFF7A14794A7D047F0212175C12F1
:100236001471434320E4F551F552853C5B853D5CE2
:10024600853E5D853F5E85405F854160E54330E3E1
:1002560008D53B0F5343F7800A053BE53BB40A0339
:10026600434308E5516003020449E55214606314F0
:10027600700302031C14700302036B147003020361
:10028600B31470030203F824056003020449E54130
:100296005430C4540F2430F545E541540F2430F54D
:1002A60046E4F547FB7A0079457D047F3A12175CF0
:1002B600E54330E312E53C7BFF70067A1479538000
:1002C6000C7A14795780067BFF7A14795B7D0202DB
:1002D60003AEE53C7BFF70067A14795380047A14EA
:1002E60079577D027F6812175CE54330E31DE53DD3
:1002F6005470C4540F2430F548E53D540F2430F5AE
:1003060049E4F54AFB7A00794880067BFF7A14793E
:100316005F7D020203F4E53D5470C4540F2430F5AA
:1003260048E53D540F2430F549E4F54AFB7A007957
:10033600487D027F5212175CE54330E31DE53E54CB
:1003460030C4540F2430F545E53E540F2430F546AD
:10035600E4F547FB7A00794580067BFF7A14795FDE
:100366007D02020444E53E5430C4540F2430F54562
:10037600E53E540F2430F546E4F547FB7A0079450F
:100386007D027F3A12175CE54330E314E53F7BFFBD
:1003960070067A14795380047A1479577D0480089C
:1003A6007BFF7A14795B7D047F68020446E53F7B18
:1003B600FF70067A14795380047A1479577D047F86
:1003C6006812175CE54330E31DE5405470C4540FD2
:1003D6002430F548E540540F2430F549E4F54AFB4E
:1003E6007A00794880067BFF7A14795F7D047F5214
:1003F600804EE5405470C4540F2430F548E540540F
:100406000F2430F549E4F54AFB7A0079487D047FEC
:100416005212175CE54330E31DE5415430C4540FD6
:100426002430F545E541540F2430F546E4F547FB05
:100436007A00794580067BFF7A14795F7D047F3ADE
:1004460012175CE542700F30A60630A50320A406FD
:10045600754402754201121B0FE54270030200212A
:10046600AF441544EF600302002120A547F550F57F
:1004760042C3E5529403E551648094805015E552D9
:1004860045517005633CFF80257B007A00793CADC1
:10049600528018E552640345517005633FFF800E94
:1004A6007B007A00793FE55224FDFD120F531214AA
:1004B6007102002120A61B0552E55270020551D398
:1004C6009405E551648094804005E4F551F55202A7
:1004D6000820E420A405F542020835F54202002171
:1004E600E54330E308D53B0F5343F7800A053BE568
:1004F6003BB40A03434308E551600302078EE55205
:10050600B40700400302078E900515F828287302E9
:1005160007370206E102068A0206330205DE0205F5
:040526008102052A1F
:10052A00AB38AA39A93A90001212116EF508900058
:10053A001312116EF509E4F50AFB7A0079087D05B4
:10054A007F4F12175CE54330E320AB38AA39A93A4A
:10055A0090000212116EF50890000312116EF5094F
:10056A00E4F50AFB7A00790880067BFF7A14795F42
:10057A007D027F1002078BAB38AA39A93A90000294
:10058A0012116EF50890000312116EF509E4F50ACE
:10059A00FB7A0079087D027F1012175CE54330E38D
:1005AA0026AB38AA39A93A90000B12116E75F020C1
:1005BA00A42453F9740835F0FA7BFF7D027F707E1C
:1005CA00001218C402078E7BFF7A14795F7D027FBE
:1005DA007002078BAB38AA39A93A90000B12116E38
:1005EA0075F020A42453F9740835F0FA7BFF7D02D4
:1005FA007F707E001218C4E54330E320AB38AA3975
:10060A00A93A90000512116EF50890000612116EB3
:10061A00F509E4F50AFB7A00790880067BFF7A146B
:10062A00795F7D027F2802078BAB38AA39A93A90F5
:10063A00000512116EF50890000612116EF509E414
:10064A00F50AFB7A0079087D027F2812175CE543D8
:10065A0030E320AB38AA39A93A90000812116EF596
:10066A000890000912116EF509E4F50AFB7A00797F
:10067A000880067BFF7A14795F7D027F4002078B30
:10068A00AB38AA39A93A90000812116EF508900001
:10069A000912116EF509E4F50AFB7A0079087D0260
:1006AA007F4012175CE54330E320AB38AA39A93AF8
:1006BA0090000C12116EF50890000D12116EF509DA
:1006CA00E4F50AFB7A00790880067BFF7A14795FE1
:1006DA007D057F1F02078BAB38AA39A93A90000C17
:1006EA0012116EF50890000D12116EF509E4F50A63
:1006FA00FB7A0079087D057F1F12175CE54330E31A
:10070A0020AB38AA39A93A90000F12116EF5089059
:10071A00001012116EF509E4F50AFB7A00790880D7
:10072A00067BFF7A14795F7D057F378054AB38AA40
:10073A0039A93A90000F12116EF5089000101211A3
:10074A006EF509E4F50AFB7A0079087D057F371210
:10075A00175CE54330E320AB38AA39A93A90001276
:10076A0012116EF50890001312116EF509E4F50ADC
:10077A00FB7A00790880067BFF7A14795F7D057F12
:04078A004F12175C97
:10078E00E54320E42CE4FF121A4D7BFF7A147962C4
:10079E00E4FD7F0C12175C434310121AD01213257E
:1007AE008B388A39893A7D02121856755100755266
:1007BE0006E542700F30A60630A50320A406754448
:1007CE0002754201121B0FE5427003020021AF4475
:1007DE001544EF600302002120A51CF550FB7A00A2
:1007EE00795BAD52120F53E4F542FB1213278B388F
:1007FE008A39893A02002120A620E552155270024C
:10080E001551E552B4FF0BE551B4FF067551007555
:10081E005206E4F550F54202002120A412121A727B
:10082E00E4F542F551F5525343F7F54F020021E43A
:05083E00F5420200215B
:061325007B007A00795BF9
:10132B00121155FF540F2430F534EF5470C4540F81
:10133B002430F53390000112116EFF540F2430F559
:10134B0031EF5470C4540F2430F530900002121159
:10135B006EFF540F2430F52EEF5430C4540F24304D
:10136B00F52D90000512116E54072431F52C9000C9
:10137B000312116EFF540F2430F52AEF5430C4546E
:10138B000F2430F52990000412116EFF540F2430F6
:10139B00F527EF5410C4540F2430F5269000061295
:1013AB00116EFF540F2430F524EF54F0C4540F2466
:0F13BB0030F5237522307521327B007A007921BD
:0113CA002200
:081856008B0B8A0C890D8D0E2D
:10185E0090000AE41211E0AD0EE4FF12175C7BFF5C
:10186E007A0E7933AD0E7F507E001218C47BFF7A4C
:10187E000E7953AD0E7F607E001218C4AB0BAA0C0E
:10188E00A90D90000B12116E75F020A42453F9745B
:10189E000835F0FA7BFFAD0E7F707E001218C4ABD8
:1018AE000BAA0CA90D740C29F9E43AFAE50E2403DF
:0618BE00FD7F1F02175C14
:0E1AF600758901758AB0758C3CC28DC28C2238
:03000300020006F2
:05000600D28CC2A832FB
:03000B000216D00A
:1016D000C0E0C0F0C083C082C0D075D000C000C0E0
:1016E00001C002C003C004C005C006C007758AB0AF
:1016F000758C3C20A70CE54F700A53430F754F01C2
:101700008002D2A8E54F60020550E550D394C8404E
:1017100030E54FB40212855B3C855C3D855D3E85BE
:101720005E3F855F40856041121AD0754F0075504D
:1017300000C28CD2A843430F53430F75420053435A
:10174000F7D007D006D005D004D003D002D001D006
:0C17500000D0D0D082D083D0F0D0E032A6
:100F53008B0B8A0C890D8D0E850E827583007401AF
:100F630012119B850E8275830012116E540FD39458
:100F7300094011AB0BAA0CA90D850E827583007471
:100F83000612119BE50EB407004003021154900FA3
:100F930098F8282873020FAD020FC6020FEC021057
:0A0FA300120210EE021110021132CA
:100FAD00AB0BAA0CA90D850E8275830012116EC3B1
:100FBD00946050030211548017AB0BAA0CA90D8538
:100FCD000E8275830012116EC3946050030211548A
:100FDD00E9250EF9E43AFA1211555480021151AB7C
:100FED000BAA0CA90D850E8275830012116EC39488
:100FFD00245003021154E9250EF9E43AFA12115561
:10100D0054C0021151AF0E7E008F828E83A3AB0BA5
:10101D00AA0CA90D12116E541FF53764046011E569
:10102D00376406600BE53764096005E537B41124B4
:10103D00850E8275830012116EC394315003021117
:10104D0054AB0BE50D250EF9E4350CFA1211555480
:10105D00C1021151E537640270508F828E83A3A3B4
:10106D00A3AB0BAA0CA90D12116EFF24965F5403AE
:10107D007012850E82F58312116EC39430500302E7
:10108D001154803DAB0BAA0CA90D850E8275830002
:10109D0012116EC394295003021154E9250EF9E47F
:1010AD003AFA12115554C1021151AB0BAA0CA90DEC
:1010BD00850E8275830012116EC394325003021196
:1010CD0054E9250EF9E43AFA12115554C11211CE14
:1010DD00AB0BAA0CA90D850E82758300740102114C
:1010ED009BAB0BAA0CA90D850E8275830012116E98
:1010FD00C394134052E9250EF9E43AFA12115554EE
:10110D00E18041AB0BAA0CA90D850E8275830012EF
:10111D00116EC394074030E9250EF9E43AFA121125
:10112D005554F0801FAB0BAA0CA90D850E8275834B
:10113D000012116ED39499400EE9250EF9E43AFA96
:07114D00121155E41211CE4E
:011154002278
:081B0F007F0C7EA9DEFEDFFC65
:011B170022AB
:10147100E53E5430C4540F2430F545E53E540F2465
:1014810030F54675473AE53D5470C4540F2430F5A4
:1014910048E53D540F2430F549E4F54AFB7A0079DB
:1014A100457D027F3A12175CE5415430C4540F2444
:1014B10030F545E541540F2430F54675473AE5408E
:1014C1005470C4540F2430F548E540540F2430F5CE
:1014D10049E4F54AFB7A0079457D047F3A12175CAD
:1014E100E53C7BFF70067A14795380047A147957AE
:1014F1007D027F6812175CE53F7BFF70067A1479E5
:0F1501005380047A1479577D047F6812175C2297
:071B210080828486888A8C13
:0919DC00075B5059223112022070
:1019E600C2A100C2A200D2A100E4FEEF1392A0EFB2
:1019F600C313FFD2A200C2A2000EBE08EEE4FEEDA3
:101A06001392A0EDC313FDD2A200C2A2000EBE081F
:041A1600EEC2A1007B
:011A1A0022A9
:10191500430701C2A100C2A200D2A100E4FDEF135A
:1019250092A0EFC313FFD2A200C2A2000DBD08EE24
:1019350000E4FDA2A0E433FFC43333335480FCEE4E
:10194500C3134CFED2A200C2A2000DBD08E5C2A180
:0C19550000D2A200C2A000D2A000AF0689
:011961002263
:101A7200E4FD7F8E1219E6E4FCEC901B2193FF74C7
:101A82005B2CF8E6FD1219E60CBC07ED7D807F8E1B
:031A92000219E650
:101AD000E4FBEB901B2193FF121915745B2BF8A606
:051AE000070BBB07ED40
:011AE50022DE
:0B1B0400D2B7D29700C29700C2B722F0
:091B1800C29700D2B700D2972257
:071A1B00AD07121B047F78E8
:101A2200E4FEEF30E704D2978002C297D2B70000FB
:101A3200C2B7EF25E0FF0EBE08E8D2970000D2B78A
:0A1A42000000A2979200C2B7A200B4
:011A4C002277
:101AE600121A1BE4FF121A22AF05121A22021B1841
:0F1A9500F583E5822CF582E43583F583E493FF36
:101AA400121A1B7F40121A22AF05121A22021B18A7
:101AB400AC07ED24B0FF121AE6EC54F0C4540F4402
:0C1AC40010FF121AE6EC540FFF021AE6A5
:021A4D00AC07E4
:101A4F00E4FBEB24B0FF121AE6E4FF121AE67F1054
:101A5F00121AE6E4FAAF04121AA40ABA80F70BBB03
:021A6F0008E08D
:011A71002252
:10151000E4FFDFFE7FAE121AE6E4FF121AE67F1048
:10152000121AE67F40121AE67F81121AE67FCF1266
:101530001AE67FA1121AE67FC8121AE67FA6121ACF
:10154000E67FA8121AE67F3F121AE67FD3121AE648
:10155000E4FF121AE67FD5121AE67F80121AE67FA0
:10156000D9121AE67FF1121AE67FDA121AE67F1212
:10157000121AE67FDB121AE67F40121AE67F20126B
:101580001AE67F02121AE67F8D121AE67F14121AEB
:10159000E67FA4121AE67FA6121AE67FAF121AE6B9
:0B15A000E4FF121A4DE4FDFF021AB434
:0A175C008F0F8D108B118A12891374
:10176600E4F514FCF515AB11AA12A91385158275BB
:10177600830012116E605B24E0F514E50FD3947FAD
:101786004007E4F50F05100510AD10AF0F121AB49F
:10179600E4FC75F010E514A42443F582E5F0340862
:1017A600121A950CBC08EBE51004FDAF0F121AB423
:1017B600E4FC75F010E514A4244BF582E5F034083A
:1017C600121A950CBC08EB7408250FF50F051502C7
:0217D600176C8E
:0117D80022EE
:0C18C4008E0F8F108D118B128A13891467
:1018D000E4FCF515121AB4E4FCAB12AA13A9148C9B
:1018E0008275830012116EFF121AA40CBC10EAAFAD
:1018F00010E51104FD121AB4E4FCEC2410F582E4A6
:1019000033F583AB12AA13A91412116EFF121AA495
:041910000CBC10E615
:0119140022B0
:0417D9008F538D5449
:1017DD007C277D10AF03AE021212027E037FE8CF8D
:1017ED00CDCFCECCCE121202EF2430F5557C037D39
:1017FD00E8AF03AE021212027E007F64CFCDCFCED2
:10180D00CCCE121202EF2430F55675572E7C007D8A
:10181D0064AF03AE021212027E007F0ACFCDCFCE8F
:10182D00CCCE121202EF2430F558AE02AF037C007D
:10183D007D0A121202ED2430F559E4F55AFB7A00B7
:09184D007955AD54AF5302175C4C
:0815AB008F168D178A188B19A9
:1015B300AE18AF19E4FCFD7BA07A867901F8121905
:1015C30062AC00AD01AE02AF03E47B107A27F9F8F9
:1015D300121962EF2430F51AAE18AF197C277D106B
:1015E3001212027E037FE8CFCDCFCECCCE121202F1
:1015F300EF2430F51BAE18AF197C037DE8121202FD
:101603007E007F64CFCDCFCECCCE121202EF24303A
:10161300F51C751D2EAE18AF197C007D64121202E5
:101623007E007F0ACFCDCFCECCCE121202EF243074
:10163300F51EE4F51FFB7A00791AAD17AF160217F2
:011643005C4A
:1008430000000000000000000000000000000000A5
:10085300000000F80000000000000033300000003A
:1008630000100C06100C0600000000000000000041
:1008730040C07840C0784000043F04043F040400B3
:10088300007088FC08300000001820FF211E0000C3
:10089300F008F000E018000000211C031E211E00D8
:1008A30000F00888700000001E212324192721105E
:1008B30010160E0000000000000000000000000001
:1008C300000000E0180402000000000718204000A8
:1008D30000020418E0000000004020180700000098
:1008E300404080F0804040000202010F01020200FC
:1008F300000000F0000000000101011F01010100E0
:10090300000000000000000080B070000000000044
:1009130000000000000000000001010101010101CD
:100923000000000000000000003030000000000064
:100933000000000080601804006018060100000039
:1009430000E010080810E000000F102020100F0036
:10095300001010F8000000000020203F20200000BD
:100963000070080808887000003028242221300015
:1009730000300888884830000018202020110E001D
:100983000000C02010F8000000070424243F2400C6
:1009930000F80888880808000019212020110E009B
:1009A30000E0108888180000000F112020110E00AD
:1009B30000380808C83808000000003F00000000A5
:1009C3000070880808887000001C222121221C0066
:1009D30000E010080810E0000000312222110F008F
:1009E300000000C0C0000000000000303000000024
:1009F3000000008000000000000080600000000094
:100A030000008040201008000001020408102000AC
:100A130040404040404040000404040404040400F7
:100A2300000810204080000000201008040201008C
:100A3300007048080808F00000000030360100008C
:100A4300C030C828E810E0000718272423140B003F
:100A53000000C038E0000000203C230202273820B9
:100A630008F8888888700000203F202020110E009D
:100A7300C030080808083800071820202010080094
:100A830008F808080810E000203F202020100F007D
:100A930008F88888E8081000203F20202320180049
:100AA30008F88888E8081000203F200003000000B1
:100AB300C03008080838000007182020221E020052
:100AC30008F808000008F808203F210101213F2011
:100AD300000808F8080800000020203F202000003C
:100AE30000000808F8080800C08080807F0000002C
:100AF30008F888C028180800203F20012638200065
:100B030008F8080000000000203F202020203000CB
:100B130008F8F800F8F80800203F003F003F2000E5
:100B230008F830C00008F808203F200007183F00ED
:100B3300E01008080810E0000F10202020100F001C
:100B430008F808080808F000203F2101010100000F
:100B5300E01008080810E0000F18242438504F0054
:100B630008F8888888887000203F2000030C302014
:100B730000708808080838000038202121221C0052
:100B8300180808F8080818000000203F200000009B
:100B930008F808000008F808001F202020201F0084
:100BA3000878880000C83808000007380E010000E4
:100BB300F80800F80008F800033C0700073C0300AE
:100BC300081868808068180820302C03032C302014
:100BD3000838C800C83808000000203F2000000083
:100BE30010080808C83808002038262120201800DB
:100BF300000000FE020202000000007F40404000AF
:100C0300000C30C000000000000000010638C000E6
:100C130000020202FE000000004040407F0000008E
:100C230000000402020204000000000000000000B3
:100C330000000000000000008080808080808080B1
:100C43000002020400000000000000000000000099
:100C530000008080808000000019242222223F208F
:100C630008F8008080000000003F112020110E00D2
:100C73000000008080800000000E11202020110061
:100C8300000000808088F800000E112020103F2013
:100C93000000808080800000001F22222222130097
:100CA300008080F0888888180020203F20200000E2
:100CB3000000808080808000006B94949493600097
:100CC30008F8008080800000203F210000203F20A2
:100CD30000809898000000000020203F20200000A2
:100CE300000000809898000000C08080807F000092
:100CF30008F8000080808000203F24022D3020006F
:100D0300000808F8000000000020203F2020000019
:100D13008080808080808000203F20003F20003F33
:100D23008080008080800000203F210000203F2041
:100D33000000808080800000001F202020201F00F2
:100D4300808000808000000080FFA12020110E0021
:100D53000000008080808000000E112020A0FF8012
:100D6300808080008080800020203F2120000100BF
:100D73000000808080808000003324242424190014
:100D8300008080E0808000000000001F2020000021
:100D93008080000000808000001F202020103F2062
:100DA300808080000080808000010E3008060100F2
:100DB30080800080008080800F300C030C300F0097
:100DC30000808000808080000020312E0E312000C2
:100DD300808080000080808080818E7018060100F2
:100DE30000808080808080000021302C2221300010
:100DF30000000000807C020200000000003F404031
:100E030000000000FF00000000000000FF000000E1
:100E13000002027C800000000040403F0000000010
:100E230000060101020204040000000000000000AB
:100E3300000000BE2A2A2AEA2A2A2A3E00000000CD
:100E4300004442494949497F4949494941400000D1
:100E53000004FF242424FF0400FE222222FE0000BB
:100E630088482F090919AF48300F0242827F0000DA
:100E730080808080808080808080808080808000EF
:100E8300000000000000000000000000000000005F
:100E930000000808080808080808080808000000F7
:100EA300101010101010101010101010101010004F
:100EB300000484848484848484848484840400007B
:100EC300202020202020202020202020202020003F
:100ED30000FC040404FC040404FC040404FC0000FB
:100EE300007F28242320202020212222227F00008B
:100EF3000002424242C27E42424242C20202000019
:100F030040404040784740404040407F40404000A0
:100F130020202020202021222C20202020202000DF
:100F2300004020100C0300000001020418600000C0
:100F3300000000FE82828282828282FE0000000024
:100F4300000000FF40404040404040FF00000000E0
:1016500002000EE493A3F8E493A34003F68001F2A2
:1016600008DFF48029E493A3F85407240CC8C3339B
:10167000C4540F4420C8834004F456800146F6DF6A
:10168000E4800B01020408102040809019A6E47E3B
:10169000019360BCA3FF543F30E509541FFEE4935F
:1016A000A360010ECF54C025E060A840B8E493A326
:1016B000FAE493A3F8E493A3C8C582C8CAC583CA51
:1016C000F0A3C8C582C8CAC583CADFE9DEE780BE09
:0119E5000001
:10115500BB010689828A83E0225002E722BBFE0298
:09116500E32289828A83E49322CB
:10116E00BB010CE58229F582E5833AF583E0225036
:10117E0006E92582F8E622BBFE06E92582F8E22280
:0D118E00E58229F582E5833AF583E493229A
:10119B00BB010FF8E58229F582E5833AF583E02858
:1011AB00F0225009C58229F8E58226F622BBFE09FA
:1011BB00C58229F8E22582F222F8EA2583F583E934
:0311CB0093282244
:1011CE00BB010689828A83F0225002F722BBFE0100
:0211DE00F322FA
:1011E000F8BB010DE58229F582E5833AF583E8F045
:1011F000225006E92582C8F622BBFE05E92582C8F1
:02120000F222D8
:10120200BC000BBE0029EF8DF084FFADF022E4CCD0
:10121200F875F008EF2FFFEE33FEEC33FCEE9DEC99
:10122200984005FCEE9DFE0FD5F0E9E4CEFD22EDDF
:10123200F8F5F0EE8420D21CFEADF075F008EF2F29
:10124200FFED33FD4007985006D5F0F222C398FD1A
:051252000FD5F0EA22B7
:10196200C2D5E830E70FB2D5E4C39BFBE49AFAE4B0
:1019720099F9E498F8EC30E717B2D51219981212D7
:1019820093E4C39BFBE49AFAE499F9E498F88003A0
:1019920012129330D50DE4C39FFFE49EFEE49DFD39
:0419A200E49CFC22A3
:1012570075F008758200EF2FFFEE33FECD33CDCC4E
:1012670033CCC58233C5829BED9AEC99E5829840D1
:101277000CF582EE9BFEED9AFDEC99FC0FD5F0D6AE
:10128700E4CEFBE4CDFAE4CCF9A88222B800C1B9D8
:101297000059BA002DEC8BF084CFCECDFCE5F0CB16
:1012A700F97818EF2FFFEE33FEED33FDEC33FCEB4F
:1012B70033FB10D703994004EB99FB0FD8E5E4F90A
:1012C700FA227818EF2FFFEE33FEED33FDEC33FCF7
:1012D700C933C910D7059BE99A4007EC9BFCE99AEB
:1012E700F90FD8E0E4C9FAE4CCFB2275F010EF2F30
:1012F700FFEE33FEED33FDCC33CCC833C810D70730
:101307009BEC9AE899400AED9BFDEC9AFCE899F86A
:0E1317000FD5F0DAE4CDFBE4CCFAE4C8F922FD
:00000001FF
