:0300000002157670
:0C157600787FE4F6D8FD7581600215BD99
:1012FD00416C61726D000031204F4E000031204F66
:10130D004646000032204F4E000032204F46460028
:10131D00003C4F7074696F6E204D656E753E000018
:10132D00312E54696D65205365740000322E416C69
:10133D0061726D20536574000040417574686F7261
:10134D003A435442555E5368790000202020200016
:10135D00003C2D3C2D00003C20416C61726D2053F2
:10136D006574203E0000416C61726D31400000419A
:10137D006C61726D324000004F464600204F4E00AA
:10138D00202020002020003C2054696D6520205332
:06139D006574203E000013
:1018D700063B003008002008014E00014F0101417E
:1018E7000001430001420002500000013A001621A6
:1018F700323032302D31312D30392D3132303A30CE
:06190700303A313200000D
:10000E0043B010121442121A27C288D2A8D2A9C223
:10001E008CD2AFE54E147003020119147003020264
:10002E00041470030204E61470030200D324047057
:10003E00E2E54220E743E4FF12197E4342807BFF54
:10004E007A1279FD7D06E4FF12168DE53B7BFF608B
:10005E00067A13790480047A13790A7D067F2A12B0
:10006E00168DE53E7BFF60067A13791180047A13B4
:10007E0079177D067F5512168D121A011212578BA3
:10008E00378A388939E4FD121787E53B6011E55B45
:10009E00B53C0CE55CB53D07E55A7003754E04E5BD
:1000AE003E7003020021E55B653F6003020021E51F
:1000BE005C65406003020021E55A60030200217571
:0A00CE004E04020021B2B4E4F54F25
:0F00D8007508C8AF081508EF6005121A4080F4CC
:0C00E70030A60930A50630A40302002159
:1000F300750850754101AF081508EF7005121A40D5
:1001030080F430A60930A50630A403020021D2B43E
:03011300E4F54EC2
:10011600020021E54220E63CE4FF12197E7BFF7ACD
:1001260013791EE4FD7F0C12168D7BFF7A13792D51
:100136007D027F0212168D7BFF7A1379397D047F4B
:100146000212168D7BFF7A1379467D06E4FF12169E
:100156008D434240E541700F30A60630A50320A42A
:1001660006754314754101121A40E54170030200F9
:10017600211543E543600302002120A51F434201E8
:100186005342FDF54FF5417BFF7A1379587D027F87
:100196005012168D7BFF7A13795E802120A62843A4
:1001A60042025342FEE4F54FF5417BFF7A13795E36
:1001B6007D027F5012168D7BFF7A1379587D047F5E
:1001C6005812168D02002120A42EE54230E012E4DA
:1001D600F54FD28CC2A8434203754E02F541020088
:1001E60021E54230E112E4F54FD28CC2A843420326
:1001F600754E03F541020021E4F541020021E54276
:1002060020E549E4FF12197E7BFF7A137964E4FD49
:100216007F0C12168D7BFF7A1379737D027F021293
:10022600168D7BFF7A13797C7D047F0212168D1260
:1002360013A3434220E4F550F551853B5A853C5BB8
:10024600853D5C853E5D853F5E85405FE54230E3EA
:1002560008D53A0F5342F7800A053AE53AB40A033D
:10026600434208E5506003020449E55114606314F3
:10027600700302031C14700302036B147003020361
:10028600B31470030203F824056003020449E54031
:100296005430C4540F2430F544E540540F2430F54F
:1002A60045E4F546FB7A0079447D047F3A12168DC3
:1002B600E54230E312E53B7BFF70067A13798580D1
:1002C6000C7A13798980067BFF7A13798D7D020279
:1002D60003AEE53B7BFF70067A13798580047A13BB
:1002E60079897D027F6812168DE54230E31DE53C73
:1002F6005470C4540F2430F547E53C540F2430F5B0
:1003060048E4F549FB7A00794780067BFF7A137942
:10031600917D020203F4E53C5470C4540F2430F579
:1003260047E53C540F2430F548E4F549FB7A00795B
:10033600477D027F5212168DE54230E31DE53D549E
:1003460030C4540F2430F544E53D540F2430F545B0
:10035600E4F546FB7A00794480067BFF7A137991AF
:100366007D02020444E53D5430C4540F2430F54464
:10037600E53D540F2430F545E4F546FB7A00794413
:100386007D027F3A12168DE54230E314E53E7BFF8F
:1003960070067A13798580047A1379897D0480083A
:1003A6007BFF7A13798D7D047F68020446E53E7BE8
:1003B600FF70067A13798580047A1379897D047F24
:1003C6006812168DE54230E31DE53F5470C4540FA4
:1003D6002430F547E53F540F2430F548E4F549FB52
:1003E6007A00794780067BFF7A1379917D047F52E4
:1003F600804EE53F5470C4540F2430F547E53F5412
:100406000F2430F548E4F549FB7A0079477D047FEF
:100416005212168DE54230E31DE5405430C4540FA8
:100426002430F544E540540F2430F545E4F546FB09
:100436007A00794480067BFF7A1379917D047F3AAE
:1004460012168DE541700F30A60630A50320A406CE
:10045600754302754101121A40E5417003020021FD
:10046600AF431543EF600302002120A547F54FF582
:1004760041C3E5519403E550648094805015E551DD
:1004860045507005633BFF80257B007A00793BADC4
:10049600518018E551640345507005633EFF800E98
:1004A6007B007A00793EE55124FDFD1211231213DB
:1004B600A302002120A61B0551E55170020550D369
:1004C6009405E550648094804005E4F550F55102AA
:1004D6000820E420A405F541020835F54102002173
:1004E600E54230E308D53A0F5342F7800A053AE56C
:1004F6003AB40A03434208E550600302078EE55109
:10050600B40700400302078E900515F828287302E9
:1005160007370206E102068A0206330205DE0205F5
:040526008102052A1F
:10052A00AB37AA38A939900012120F6CF50890005F
:10053A0013120F6CF509E4F50AFB7A0079087D05B8
:10054A007F4F12168DE54230E320AB37AA38A9391E
:10055A00900002120F6CF508900003120F6CF50957
:10056A00E4F50AFB7A00790880067BFF7A13799111
:10057A007D027F1002078BAB37AA38A93990000297
:10058A00120F6CF508900003120F6CF509E4F50AD6
:10059A00FB7A0079087D027F1012168DE54230E35E
:1005AA0026AB37AA38A93990000B120F6C75F020C8
:1005BA00A42453F9740835F0FA7BFF7D027F707E1C
:1005CA00001217F502078E7BFF7A1379917D027F5D
:1005DA007002078BAB37AA38A93990000B120F6C3F
:1005EA0075F020A42453F9740835F0FA7BFF7D02D4
:1005FA007F707E001217F5E54230E320AB37AA3848
:10060A00A939900005120F6CF508900006120F6CBC
:10061A00F509E4F50AFB7A00790880067BFF7A136C
:10062A0079917D027F2802078BAB37AA38A93990C6
:10063A000005120F6CF508900006120F6CF509E41C
:10064A00F50AFB7A0079087D027F2812168DE542A9
:10065A0030E320AB37AA38A939900008120F6CF59D
:10066A0008900009120F6CF509E4F50AFB7A007983
:10067A000880067BFF7A1379917D027F4002078BFF
:10068A00AB37AA38A939900008120F6CF508900008
:10069A0009120F6CF509E4F50AFB7A0079087D0264
:1006AA007F4012168DE54230E320AB37AA38A939CC
:1006BA0090000C120F6CF50890000D120F6CF509E2
:1006CA00E4F50AFB7A00790880067BFF7A137991B0
:1006DA007D057F1F02078BAB37AA38A93990000C1A
:1006EA00120F6CF50890000D120F6CF509E4F50A6B
:1006FA00FB7A0079087D057F1F12168DE54230E3EB
:10070A0020AB37AA38A93990000F120F6CF5089060
:10071A000010120F6CF509E4F50AFB7A00790880DB
:10072A00067BFF7A1379917D057F378054AB37AA10
:10073A0038A93990000F120F6CF508900010120FAB
:10074A006CF509E4F50AFB7A0079087D057F371212
:10075A00168DE54230E320AB37AA38A9399000124A
:10076A00120F6CF508900013120F6CF509E4F50AE4
:10077A00FB7A00790880067BFF7A1379917D057FE1
:04078A004F12168D67
:10078E00E54220E42CE4FF12197E7BFF7A13799464
:10079E00E4FD7F0C12168D434210121A01121257ED
:1007AE008B378A3889397D0212178775500075513B
:1007BE0006E541700F30A60630A50320A40675434A
:1007CE0002754101121A40E5417003020021AF4348
:1007DE001543EF600302002120A51CF54FFB7A00A4
:1007EE00795AAD51121123E4F541FB1212598B3790
:1007FE008A38893902002120A620E5511551700250
:10080E001550E551B4FF0BE550B4FF067550007559
:10081E005106E4F54FF54102002120A4121219A34E
:10082E00E4F541F550F5515342F7F54E020021E43F
:05083E00F5410200215C
:061257007B007A00795AC9
:10125D00120F53FF540F2430F534EF5470C4540F54
:10126D002430F533900001120F6CFF540F2430F52C
:10127D0031EF5470C4540F2430F530900002120F2A
:10128D006CFF540F2430F52EEF5430C4540F24301E
:10129D00F52D900005120F6C54072431F52C90009C
:1012AD0003120F6CFF540F2430F52AEF5430C45441
:1012BD000F2430F529900004120F6CFF540F2430C9
:1012CD00F527EF5410C4540F2430F5269000061264
:1012DD000F6CFF540F2430F524EF54F0C4540F2439
:0F12ED0030F5237522307521327B007A0079218C
:0112FC0022CF
:081787008B0B8A0C890D8D0EFD
:10178F0090000AE4120FDEAD0EE4FF12168D7BFF00
:10179F007A0E7933AD0E7F507E001217F57BFF7AEC
:1017AF000E7953AD0E7F607E001217F5AB0BAA0CAE
:1017BF00A90D90000B120F6C75F020A42453F9742F
:1017CF000835F0FA7BFFAD0E7F707E001217F5AB78
:1017DF000BAA0CA90D740C29F9E43AFAE50E2403AF
:0617EF00FD7F1F02168DB4
:0E1A2700758901758AB0758C3CC28DC28C2207
:03000300020006F2
:05000600D28CC2A832FB
:03000B00021602D8
:10160200C0E0C0F0C083C082C0D075D000C000C0AE
:1016120001C002C003C004C005C006C007758AB07D
:10162200758C3C20A70EE54E6401600353420F7592
:101632004E018002D2A8E54E6002054FE54FD394D9
:10164200C8402DE54EB40212855A3B855B3C855C51
:101652003D855D3E855E3F855F40121A01754E00F5
:10166200754F00C28CD2A843420F7541005342F716
:10167200D007D006D005D004D003D002D001D000CC
:0B168200D0D0D082D083D0F0D0E03276
:101123008B0B8A0C890D8D827583007401120F99C4
:101133008D82758300120F6C540FD394094010AB4A
:101143000BAA0CA90D8D827583007406120F99EDFD
:10115300B407004003021256901162F82828730264
:10116300117702118F0211B30211D60211F6021286
:1011730016021236AB0BAA0CA90D8D8275830012D1
:101183000F6CC3946050030212568016AB0BAA0C6B
:10119300A90D8D82758300120F6CC39460500302F6
:1011A3001256E92DF9E43AFA120F535480021253FE
:1011B300AB0BAA0CA90D8D82758300120F6CC3941F
:1011C300245003021256E92DF9E43AFA120F53544C
:1011D300C0807DAB0BAA0CA90D8D82758300120F05
:1011E3006CC39432406DE92DF9E43AFA120F53546B
:1011F300C0805DAB0BAA0CA90D8D82758300120F05
:101203006CC39413404DE92DF9E43AFA120F535489
:10121300E0803DAB0BAA0CA90D8D82758300120FE4
:101223006CC39407402DE92DF9E43AFA120F535495
:10123300F0801DAB0BAA0CA90D8D82758300120FD4
:101243006CD39499400DE92DF9E43AFA120F53E463
:04125300120FCC2288
:081A40007F0C7EA9DEFEDFFC35
:011A4800227B
:1013A300E53D5430C4540F2430F544E53D540F2437
:1013B30030F54575463AE53C5470C4540F2430F576
:1013C30047E53C540F2430F548E4F549FB7A0079AE
:1013D300447D027F3A12168DE5405430C4540F24E5
:1013E30030F544E540540F2430F54575463AE53F62
:1013F3005470C4540F2430F547E53F540F2430F59F
:1014030048E4F549FB7A0079447D047F3A12168D4E
:10141300E53B7BFF70067A13798580047A1379891B
:101423007D027F6812168DE53E7BFF70067A137985
:0F1433008580047A1379897D047F6812168D22D3
:071A520080828486888A8CE3
:09190D00075A5059223112022040
:10191700C2A100C2A200D2A100E4FEEF1392A0EF81
:10192700C313FFD2A200C2A2000EBE08EEE4FEED72
:101937001392A0EDC313FDD2A200C2A2000EBE08EF
:04194700EEC2A1004B
:01194B002279
:10184600430701C2A100C2A200D2A100E4FDEF132A
:1018560092A0EFC313FFD2A200C2A2000DBD08EEF4
:1018660000E4FDA2A0E433FFC43333335480FCEE1E
:10187600C3134CFED2A200C2A2000DBD08E5C2A150
:0C18860000D2A200C2A000D2A000AF0659
:011892002233
:1019A300E4FD7F8E121917E4FCEC901A5293FF7436
:1019B3005A2CF8E6FD1219170CBC07ED7D807F8EBB
:0319C300021917EF
:101A0100E4FBEB901A5293FF121846745A2BF8A676
:051A1100070BBB07ED0F
:011A160022AD
:0B1A3500D2B7D29700C29700C2B722C0
:091A4900C29700D2B700D2972227
:07194C00AD07121A357F7888
:10195300E4FEEF30E704D2978002C297D2B70000CB
:10196300C2B7EF25E0FF0EBE08E8D2970000D2B75A
:0A1973000000A2979200C2B7A20084
:01197D002247
:101A170012194CE4FF121953AF05121953021A4950
:0F19C600F583E5822CF582E43583F583E493FF06
:1019D50012194C7F40121953AF05121953021A49B7
:1019E500AC07ED24B0FF121A17EC54F0C4540F44A1
:0C19F50010FF121A17EC540FFF021A1713
:02197E00AC07B4
:10198000E4FBEB24B0FF121A17E4FF121A177F10C2
:10199000121A17E4FAAF041219D50ABA80F70BBB72
:0219A00008E05D
:0119A2002222
:10144200E4FFDFFE7FAE121A17E4FF121A177F10B5
:10145200121A177F40121A177F81121A177FCF12A2
:101462001A177FA1121A177FC8121A177FA6121A0B
:10147200177FA8121A177F3F121A177FD3121A1753
:10148200E4FF121A177FD5121A177F80121A177FDC
:10149200D9121A177FF1121A177FDA121A177F124E
:1014A200121A177FDB121A177F40121A177F2012A7
:1014B2001A177F02121A177F8D121A177F14121A27
:1014C200177FA4121A177FA6121A177FAF121A17C4
:0B14D200E4FF12197EE4FDFF0219E5A3
:0A168D008F0F8D108B118A12891344
:10169700E4F514FCF515AB11AA12A913851582758B
:1016A7008300120F6C605B24E0F514E50FD3947F81
:1016B7004007E4F50F05100510AD10AF0F1219E53F
:1016C700E4FC75F010E514A42443F582E5F0340832
:1016D7001219C60CBC08EBE51004FDAF0F1219E593
:1016E700E4FC75F010E514A4244BF582E5F034080A
:1016F7001219C60CBC08EB7408250FF50F05150267
:02170700169D2D
:0117090022BD
:0C17F5008E0F8F108D118B128A13891437
:10180100E4FCF5151219E5E4FCAB12AA13A9148C3A
:1018110082758300120F6CFF1219D50CBC10EAAF50
:1018210010E51104FD1219E5E4FCEC2410F582E445
:1018310033F583AB12AA13A914120F6CFF1219D539
:041841000CBC10E6E5
:011845002280
:04170A008F528D531A
:10170E007C277D10AF03AE021210007E037FE8CF60
:10171E00CDCFCECCCE121000EF2430F5547C037D0D
:10172E00E8AF03AE021210007E007F64CFCDCFCEA5
:10173E00CCCE121000EF2430F55575562E7C007D60
:10174E0064AF03AE021210007E007F0ACFCDCFCE63
:10175E00CCCE121000EF2430F557AE02AF037C0052
:10176E007D0A121000ED2430F558E4F559FB7A008D
:09177E007954AD53AF5202168DEF
:0814DD008F168D178A188B1978
:1014E500AE18AF19E4FCFD7BA07A867901F81218D5
:1014F50093AC00AD01AE02AF03E47B107A27F9F897
:10150500121893EF2430F51AAE18AF197C277D1009
:101515001210007E037FE8CFCDCFCECCCE121000C7
:10152500EF2430F51BAE18AF197C037DE8121000CF
:101535007E007F64CFCDCFCECCCE121000EF24300D
:10154500F51C751D2EAE18AF197C007D64121000B8
:101555007E007F0ACFCDCFCECCCE121000EF243047
:10156500F51EE4F51FFB7A00791AAD17AF160216C2
:011575008DE8
:1008430000000000000000000000000000000000A5
:10085300000000F80000000000000033300000003A
:1008630000100C06100C0600000000000000000041
:1008730040C07840C0784000043F04043F040400B3
:10088300007088FC08300000001820FF211E0000C3
:10089300F008F000E018000000211C031E211E00D8
:1008A30000F00888700000001E212324192721105E
:1008B30010160E0000000000000000000000000001
:1008C300000000E0180402000000000718204000A8
:1008D30000020418E0000000004020180700000098
:1008E300404080F0804040000202010F01020200FC
:1008F300000000F0000000000101011F01010100E0
:10090300000000000000000080B070000000000044
:1009130000000000000000000001010101010101CD
:100923000000000000000000003030000000000064
:100933000000000080601804006018060100000039
:1009430000E010080810E000000F102020100F0036
:10095300001010F8000000000020203F20200000BD
:100963000070080808887000003028242221300015
:1009730000300888884830000018202020110E001D
:100983000000C02010F8000000070424243F2400C6
:1009930000F80888880808000019212020110E009B
:1009A30000E0108888180000000F112020110E00AD
:1009B30000380808C83808000000003F00000000A5
:1009C3000070880808887000001C222121221C0066
:1009D30000E010080810E0000000312222110F008F
:1009E300000000C0C0000000000000303000000024
:1009F3000000008000000000000080600000000094
:100A030000008040201008000001020408102000AC
:100A130040404040404040000404040404040400F7
:100A2300000810204080000000201008040201008C
:100A3300007048080808F00000000030360100008C
:100A4300C030C828E810E0000718272423140B003F
:100A53000000C038E0000000203C230202273820B9
:100A630008F8888888700000203F202020110E009D
:100A7300C030080808083800071820202010080094
:100A830008F808080810E000203F202020100F007D
:100A930008F88888E8081000203F20202320180049
:100AA30008F88888E8081000203F200003000000B1
:100AB300C03008080838000007182020221E020052
:100AC30008F808000008F808203F210101213F2011
:100AD300000808F8080800000020203F202000003C
:100AE30000000808F8080800C08080807F0000002C
:100AF30008F888C028180800203F20012638200065
:100B030008F8080000000000203F202020203000CB
:100B130008F8F800F8F80800203F003F003F2000E5
:100B230008F830C00008F808203F200007183F00ED
:100B3300E01008080810E0000F10202020100F001C
:100B430008F808080808F000203F2101010100000F
:100B5300E01008080810E0000F18242438504F0054
:100B630008F8888888887000203F2000030C302014
:100B730000708808080838000038202121221C0052
:100B8300180808F8080818000000203F200000009B
:100B930008F808000008F808001F202020201F0084
:100BA3000878880000C83808000007380E010000E4
:100BB300F80800F80008F800033C0700073C0300AE
:100BC300081868808068180820302C03032C302014
:100BD3000838C800C83808000000203F2000000083
:100BE30010080808C83808002038262120201800DB
:100BF300000000FE020202000000007F40404000AF
:100C0300000C30C000000000000000010638C000E6
:100C130000020202FE000000004040407F0000008E
:100C230000000402020204000000000000000000B3
:100C330000000000000000008080808080808080B1
:100C43000002020400000000000000000000000099
:100C530000008080808000000019242222223F208F
:100C630008F8008080000000003F112020110E00D2
:100C73000000008080800000000E11202020110061
:100C8300000000808088F800000E112020103F2013
:100C93000000808080800000001F22222222130097
:100CA300008080F0888888180020203F20200000E2
:100CB3000000808080808000006B94949493600097
:100CC30008F8008080800000203F210000203F20A2
:100CD30000809898000000000020203F20200000A2
:100CE300000000809898000000C08080807F000092
:100CF30008F8000080808000203F24022D3020006F
:100D0300000808F8000000000020203F2020000019
:100D13008080808080808000203F20003F20003F33
:100D23008080008080800000203F210000203F2041
:100D33000000808080800000001F202020201F00F2
:100D4300808000808000000080FFA12020110E0021
:100D53000000008080808000000E112020A0FF8012
:100D6300808080008080800020203F2120000100BF
:100D73000000808080808000003324242424190014
:100D8300008080E0808000000000001F2020000021
:100D93008080000000808000001F202020103F2062
:100DA300808080000080808000010E3008060100F2
:100DB30080800080008080800F300C030C300F0097
:100DC30000808000808080000020312E0E312000C2
:100DD300808080000080808080818E7018060100F2
:100DE30000808080808080000021302C2221300010
:100DF30000000000807C020200000000003F404031
:100E030000000000FF00000000000000FF000000E1
:100E13000002027C800000000040403F0000000010
:100E230000060101020204040000000000000000AB
:100E3300000000BE2A2A2AEA2A2A2A3E00000000CD
:100E4300004442494949497F4949494941400000D1
:100E53000004FF242424FF0400FE222222FE0000BB
:100E630088482F090919AF48300F0242827F0000DA
:100E730080808080808080808080808080808000EF
:100E8300000000000000000000000000000000005F
:100E930000000808080808080808080808000000F7
:100EA300101010101010101010101010101010004F
:100EB300000484848484848484848484840400007B
:100EC300202020202020202020202020202020003F
:100ED30000FC040404FC040404FC040404FC0000FB
:100EE300007F28242320202020212222227F00008B
:100EF3000002424242C27E42424242C20202000019
:100F030040404040784740404040407F40404000A0
:100F130020202020202021222C20202020202000DF
:100F2300004020100C0300000001020418600000C0
:100F3300000000FE82828282828282FE0000000024
:100F4300000000FF40404040404040FF00000000E0
:1015820002000EE493A3F8E493A34003F68001F271
:1015920008DFF48029E493A3F85407240CC8C3336A
:1015A200C4540F4420C8834004F456800146F6DF39
:1015B200E4800B01020408102040809018D7E47EDA
:1015C200019360BCA3FF543F30E509541FFEE4932E
:1015D200A360010ECF54C025E060A840B8E493A3F5
:1015E200FAE493A3F8E493A3C8C582C8CAC583CA20
:1015F200F0A3C8C582C8CAC583CADFE9DEE780BED8
:0119160000D0
:100F5300BB010689828A83E0225002E722BBFE029C
:090F6300E32289828A83E49322CF
:100F6C00BB010CE58229F582E5833AF583E022503A
:100F7C0006E92582F8E622BBFE06E92582F8E22284
:0D0F8C00E58229F582E5833AF583E493229E
:100F9900BB010FF8E58229F582E5833AF583E0285C
:100FA900F0225009C58229F8E58226F622BBFE09FE
:100FB900C58229F8E22582F222F8EA2583F583E938
:030FC90093282248
:100FCC00BB010689828A83F0225002F722BBFE0104
:020FDC00F322FE
:100FDE00F8BB010DE58229F582E5833AF583E8F049
:100FEE00225006E92582C8F622BBFE05E92582C8F5
:020FFE00F222DD
:10100000BC000BBE0029EF8DF084FFADF022E4CCD4
:10101000F875F008EF2FFFEE33FEEC33FCEE9DEC9D
:10102000984005FCEE9DFE0FD5F0E9E4CEFD22EDE3
:10103000F8F5F0EE8420D21CFEADF075F008EF2F2D
:10104000FFED33FD4007985006D5F0F222C398FD1E
:051050000FD5F0EA22BB
:10189300C2D5E830E70FB2D5E4C39BFBE49AFAE480
:1018A30099F9E498F8EC30E717B2D51218C9121079
:1018B30091E4C39BFBE49AFAE499F9E498F8800372
:1018C30012109130D50DE4C39FFFE49EFEE49DFD0D
:0418D300E49CFC2273
:1010550075F008758200EF2FFFEE33FECD33CDCC52
:1010650033CCC58233C5829BED9AEC99E5829840D5
:101075000CF582EE9BFEED9AFDEC99FC0FD5F0D6B2
:10108500E4CEFBE4CDFAE4CCF9A88222B800C1B9DC
:101095000059BA002DEC8BF084CFCECDFCE5F0CB1A
:1010A500F97818EF2FFFEE33FEED33FDEC33FCEB53
:1010B50033FB10D703994004EB99FB0FD8E5E4F90E
:1010C500FA227818EF2FFFEE33FEED33FDEC33FCFB
:1010D500C933C910D7059BE99A4007EC9BFCE99AEF
:1010E500F90FD8E0E4C9FAE4CCFB2275F010EF2F34
:1010F500FFEE33FEED33FDCC33CCC833C810D70734
:101105009BEC9AE899400AED9BFDEC9AFCE899F86E
:0E1115000FD5F0DAE4CDFBE4CCFAE4C8F92201
:00000001FF
